{
  "contractName": "AvaraNft",
  "abi": [
    {
      "inputs": [
        {
          "internalType": "string",
          "name": "name",
          "type": "string"
        },
        {
          "internalType": "string",
          "name": "symbol",
          "type": "string"
        }
      ],
      "stateMutability": "nonpayable",
      "type": "constructor"
    },
    {
      "anonymous": false,
      "inputs": [
        {
          "indexed": true,
          "internalType": "address",
          "name": "owner",
          "type": "address"
        },
        {
          "indexed": true,
          "internalType": "address",
          "name": "approved",
          "type": "address"
        },
        {
          "indexed": true,
          "internalType": "uint256",
          "name": "tokenId",
          "type": "uint256"
        }
      ],
      "name": "Approval",
      "type": "event"
    },
    {
      "anonymous": false,
      "inputs": [
        {
          "indexed": true,
          "internalType": "address",
          "name": "owner",
          "type": "address"
        },
        {
          "indexed": true,
          "internalType": "address",
          "name": "operator",
          "type": "address"
        },
        {
          "indexed": false,
          "internalType": "bool",
          "name": "approved",
          "type": "bool"
        }
      ],
      "name": "ApprovalForAll",
      "type": "event"
    },
    {
      "anonymous": false,
      "inputs": [
        {
          "indexed": true,
          "internalType": "address",
          "name": "from",
          "type": "address"
        },
        {
          "indexed": true,
          "internalType": "address",
          "name": "to",
          "type": "address"
        },
        {
          "indexed": true,
          "internalType": "uint256",
          "name": "tokenId",
          "type": "uint256"
        }
      ],
      "name": "Transfer",
      "type": "event"
    },
    {
      "inputs": [
        {
          "internalType": "address",
          "name": "to",
          "type": "address"
        },
        {
          "internalType": "uint256",
          "name": "tokenId",
          "type": "uint256"
        }
      ],
      "name": "approve",
      "outputs": [],
      "stateMutability": "nonpayable",
      "type": "function"
    },
    {
      "inputs": [
        {
          "internalType": "address",
          "name": "owner",
          "type": "address"
        }
      ],
      "name": "balanceOf",
      "outputs": [
        {
          "internalType": "uint256",
          "name": "",
          "type": "uint256"
        }
      ],
      "stateMutability": "view",
      "type": "function"
    },
    {
      "inputs": [
        {
          "internalType": "uint256",
          "name": "_tokenId",
          "type": "uint256"
        }
      ],
      "name": "exists",
      "outputs": [
        {
          "internalType": "bool",
          "name": "",
          "type": "bool"
        }
      ],
      "stateMutability": "view",
      "type": "function"
    },
    {
      "inputs": [
        {
          "internalType": "uint256",
          "name": "tokenId",
          "type": "uint256"
        }
      ],
      "name": "getApproved",
      "outputs": [
        {
          "internalType": "address",
          "name": "",
          "type": "address"
        }
      ],
      "stateMutability": "view",
      "type": "function"
    },
    {
      "inputs": [
        {
          "internalType": "address",
          "name": "owner",
          "type": "address"
        },
        {
          "internalType": "address",
          "name": "operator",
          "type": "address"
        }
      ],
      "name": "isApprovedForAll",
      "outputs": [
        {
          "internalType": "bool",
          "name": "",
          "type": "bool"
        }
      ],
      "stateMutability": "view",
      "type": "function"
    },
    {
      "inputs": [],
      "name": "name",
      "outputs": [
        {
          "internalType": "string",
          "name": "",
          "type": "string"
        }
      ],
      "stateMutability": "view",
      "type": "function"
    },
    {
      "inputs": [
        {
          "internalType": "uint256",
          "name": "tokenId",
          "type": "uint256"
        }
      ],
      "name": "ownerOf",
      "outputs": [
        {
          "internalType": "address",
          "name": "",
          "type": "address"
        }
      ],
      "stateMutability": "view",
      "type": "function"
    },
    {
      "inputs": [
        {
          "internalType": "address",
          "name": "from",
          "type": "address"
        },
        {
          "internalType": "address",
          "name": "to",
          "type": "address"
        },
        {
          "internalType": "uint256",
          "name": "tokenId",
          "type": "uint256"
        }
      ],
      "name": "safeTransferFrom",
      "outputs": [],
      "stateMutability": "nonpayable",
      "type": "function"
    },
    {
      "inputs": [
        {
          "internalType": "address",
          "name": "from",
          "type": "address"
        },
        {
          "internalType": "address",
          "name": "to",
          "type": "address"
        },
        {
          "internalType": "uint256",
          "name": "tokenId",
          "type": "uint256"
        },
        {
          "internalType": "bytes",
          "name": "_data",
          "type": "bytes"
        }
      ],
      "name": "safeTransferFrom",
      "outputs": [],
      "stateMutability": "nonpayable",
      "type": "function"
    },
    {
      "inputs": [
        {
          "internalType": "address",
          "name": "operator",
          "type": "address"
        },
        {
          "internalType": "bool",
          "name": "approved",
          "type": "bool"
        }
      ],
      "name": "setApprovalForAll",
      "outputs": [],
      "stateMutability": "nonpayable",
      "type": "function"
    },
    {
      "inputs": [
        {
          "internalType": "bytes4",
          "name": "interfaceId",
          "type": "bytes4"
        }
      ],
      "name": "supportsInterface",
      "outputs": [
        {
          "internalType": "bool",
          "name": "",
          "type": "bool"
        }
      ],
      "stateMutability": "view",
      "type": "function"
    },
    {
      "inputs": [],
      "name": "symbol",
      "outputs": [
        {
          "internalType": "string",
          "name": "",
          "type": "string"
        }
      ],
      "stateMutability": "view",
      "type": "function"
    },
    {
      "inputs": [
        {
          "internalType": "uint256",
          "name": "tokenId",
          "type": "uint256"
        }
      ],
      "name": "tokenURI",
      "outputs": [
        {
          "internalType": "string",
          "name": "",
          "type": "string"
        }
      ],
      "stateMutability": "view",
      "type": "function"
    },
    {
      "inputs": [
        {
          "internalType": "address",
          "name": "from",
          "type": "address"
        },
        {
          "internalType": "address",
          "name": "to",
          "type": "address"
        },
        {
          "internalType": "uint256",
          "name": "tokenId",
          "type": "uint256"
        }
      ],
      "name": "transferFrom",
      "outputs": [],
      "stateMutability": "nonpayable",
      "type": "function"
    }
  ],
  "bytecode": "0x60806040523480156200001157600080fd5b506040516200278e3803806200278e833981810160405281019062000037919062000197565b818181600090805190602001906200005192919062000075565b5080600190805190602001906200006a92919062000075565b50505050506200037a565b82805462000083906200029f565b90600052602060002090601f016020900481019282620000a75760008555620000f3565b82601f10620000c257805160ff1916838001178555620000f3565b82800160010185558215620000f3579182015b82811115620000f2578251825591602001919060010190620000d5565b5b50905062000102919062000106565b5090565b5b808211156200012157600081600090555060010162000107565b5090565b60006200013c620001368462000233565b6200020a565b9050828152602081018484840111156200015557600080fd5b6200016284828562000269565b509392505050565b600082601f8301126200017c57600080fd5b81516200018e84826020860162000125565b91505092915050565b60008060408385031215620001ab57600080fd5b600083015167ffffffffffffffff811115620001c657600080fd5b620001d4858286016200016a565b925050602083015167ffffffffffffffff811115620001f257600080fd5b62000200858286016200016a565b9150509250929050565b60006200021662000229565b9050620002248282620002d5565b919050565b6000604051905090565b600067ffffffffffffffff8211156200025157620002506200033a565b5b6200025c8262000369565b9050602081019050919050565b60005b83811015620002895780820151818401526020810190506200026c565b8381111562000299576000848401525b50505050565b60006002820490506001821680620002b857607f821691505b60208210811415620002cf57620002ce6200030b565b5b50919050565b620002e08262000369565b810181811067ffffffffffffffff821117156200030257620003016200033a565b5b80604052505050565b7f4e487b7100000000000000000000000000000000000000000000000000000000600052602260045260246000fd5b7f4e487b7100000000000000000000000000000000000000000000000000000000600052604160045260246000fd5b6000601f19601f8301169050919050565b612404806200038a6000396000f3fe608060405234801561001057600080fd5b50600436106100ea5760003560e01c80636352211e1161008c578063a22cb46511610066578063a22cb4651461026f578063b88d4fde1461028b578063c87b56dd146102a7578063e985e9c5146102d7576100ea565b80636352211e146101f157806370a082311461022157806395d89b4114610251576100ea565b8063095ea7b3116100c8578063095ea7b31461016d57806323b872dd1461018957806342842e0e146101a55780634f558e79146101c1576100ea565b806301ffc9a7146100ef57806306fdde031461011f578063081812fc1461013d575b600080fd5b610109600480360381019061010491906116de565b610307565b6040516101169190611a58565b60405180910390f35b6101276103e9565b6040516101349190611a73565b60405180910390f35b61015760048036038101906101529190611730565b61047b565b60405161016491906119f1565b60405180910390f35b610187600480360381019061018291906116a2565b610500565b005b6101a3600480360381019061019e919061159c565b610618565b005b6101bf60048036038101906101ba919061159c565b610678565b005b6101db60048036038101906101d69190611730565b610698565b6040516101e89190611a58565b60405180910390f35b61020b60048036038101906102069190611730565b6106aa565b60405161021891906119f1565b60405180910390f35b61023b60048036038101906102369190611537565b61075c565b6040516102489190611c15565b60405180910390f35b610259610814565b6040516102669190611a73565b60405180910390f35b61028960048036038101906102849190611666565b6108a6565b005b6102a560048036038101906102a091906115eb565b6108bc565b005b6102c160048036038101906102bc9190611730565b61091e565b6040516102ce9190611a73565b60405180910390f35b6102f160048036038101906102ec9190611560565b6109c5565b6040516102fe9190611a58565b60405180910390f35b60007fcff9d6b4000000000000000000000000000000000000000000000000000000007bffffffffffffffffffffffffffffffffffffffffffffffffffffffff1916827bffffffffffffffffffffffffffffffffffffffffffffffffffffffff191614806103d257507f5b5e139f000000000000000000000000000000000000000000000000000000007bffffffffffffffffffffffffffffffffffffffffffffffffffffffff1916827bffffffffffffffffffffffffffffffffffffffffffffffffffffffff1916145b806103e257506103e182610a59565b5b9050919050565b6060600080546103f890611e3a565b80601f016020809104026020016040519081016040528092919081815260200182805461042490611e3a565b80156104715780601f1061044657610100808354040283529160200191610471565b820191906000526020600020905b81548152906001019060200180831161045457829003601f168201915b5050505050905090565b600061048682610ac3565b6104c5576040517f08c379a00000000000000000000000000000000000000000000000000000000081526004016104bc90611b75565b60405180910390fd5b6004600083815260200190815260200160002060009054906101000a900473ffffffffffffffffffffffffffffffffffffffff169050919050565b600061050b826106aa565b90508073ffffffffffffffffffffffffffffffffffffffff168373ffffffffffffffffffffffffffffffffffffffff16141561057c576040517f08c379a000000000000000000000000000000000000000000000000000000000815260040161057390611bd5565b60405180910390fd5b8073ffffffffffffffffffffffffffffffffffffffff1661059b610b2f565b73ffffffffffffffffffffffffffffffffffffffff1614806105ca57506105c9816105c4610b2f565b6109c5565b5b610609576040517f08c379a000000000000000000000000000000000000000000000000000000000815260040161060090611b15565b60405180910390fd5b6106138383610b37565b505050565b610629610623610b2f565b82610bf0565b610668576040517f08c379a000000000000000000000000000000000000000000000000000000000815260040161065f90611bf5565b60405180910390fd5b610673838383610cce565b505050565b610693838383604051806020016040528060008152506108bc565b505050565b60006106a382610ac3565b9050919050565b6000806002600084815260200190815260200160002060009054906101000a900473ffffffffffffffffffffffffffffffffffffffff169050600073ffffffffffffffffffffffffffffffffffffffff168173ffffffffffffffffffffffffffffffffffffffff161415610753576040517f08c379a000000000000000000000000000000000000000000000000000000000815260040161074a90611b55565b60405180910390fd5b80915050919050565b60008073ffffffffffffffffffffffffffffffffffffffff168273ffffffffffffffffffffffffffffffffffffffff1614156107cd576040517f08c379a00000000000000000000000000000000000000000000000000000000081526004016107c490611b35565b60405180910390fd5b600360008373ffffffffffffffffffffffffffffffffffffffff1673ffffffffffffffffffffffffffffffffffffffff168152602001908152602001600020549050919050565b60606001805461082390611e3a565b80601f016020809104026020016040519081016040528092919081815260200182805461084f90611e3a565b801561089c5780601f106108715761010080835404028352916020019161089c565b820191906000526020600020905b81548152906001019060200180831161087f57829003601f168201915b5050505050905090565b6108b86108b1610b2f565b8383610f2a565b5050565b6108cd6108c7610b2f565b83610bf0565b61090c576040517f08c379a000000000000000000000000000000000000000000000000000000000815260040161090390611bf5565b60405180910390fd5b61091884848484611097565b50505050565b606061092982610ac3565b610968576040517f08c379a000000000000000000000000000000000000000000000000000000000815260040161095f90611bb5565b60405180910390fd5b60006109726110f3565b9050600081511161099257604051806020016040528060008152506109bd565b8061099c8461110a565b6040516020016109ad9291906119cd565b6040516020818303038152906040525b915050919050565b6000600560008473ffffffffffffffffffffffffffffffffffffffff1673ffffffffffffffffffffffffffffffffffffffff16815260200190815260200160002060008373ffffffffffffffffffffffffffffffffffffffff1673ffffffffffffffffffffffffffffffffffffffff16815260200190815260200160002060009054906101000a900460ff16905092915050565b60007f01ffc9a7000000000000000000000000000000000000000000000000000000007bffffffffffffffffffffffffffffffffffffffffffffffffffffffff1916827bffffffffffffffffffffffffffffffffffffffffffffffffffffffff1916149050919050565b60008073ffffffffffffffffffffffffffffffffffffffff166002600084815260200190815260200160002060009054906101000a900473ffffffffffffffffffffffffffffffffffffffff1673ffffffffffffffffffffffffffffffffffffffff1614159050919050565b600033905090565b816004600083815260200190815260200160002060006101000a81548173ffffffffffffffffffffffffffffffffffffffff021916908373ffffffffffffffffffffffffffffffffffffffff160217905550808273ffffffffffffffffffffffffffffffffffffffff16610baa836106aa565b73ffffffffffffffffffffffffffffffffffffffff167f8c5be1e5ebec7d5bd14f71427d1e84f3dd0314c0f7b2291e5b200ac8c7c3b92560405160405180910390a45050565b6000610bfb82610ac3565b610c3a576040517f08c379a0000000000000000000000000000000000000000000000000000000008152600401610c3190611af5565b60405180910390fd5b6000610c45836106aa565b90508073ffffffffffffffffffffffffffffffffffffffff168473ffffffffffffffffffffffffffffffffffffffff161480610cb457508373ffffffffffffffffffffffffffffffffffffffff16610c9c8461047b565b73ffffffffffffffffffffffffffffffffffffffff16145b80610cc55750610cc481856109c5565b5b91505092915050565b8273ffffffffffffffffffffffffffffffffffffffff16610cee826106aa565b73ffffffffffffffffffffffffffffffffffffffff1614610d44576040517f08c379a0000000000000000000000000000000000000000000000000000000008152600401610d3b90611b95565b60405180910390fd5b600073ffffffffffffffffffffffffffffffffffffffff168273ffffffffffffffffffffffffffffffffffffffff161415610db4576040517f08c379a0000000000000000000000000000000000000000000000000000000008152600401610dab90611ab5565b60405180910390fd5b610dbf8383836112b7565b610dca600082610b37565b6001600360008573ffffffffffffffffffffffffffffffffffffffff1673ffffffffffffffffffffffffffffffffffffffff1681526020019081526020016000206000828254610e1a9190611d50565b925050819055506001600360008473ffffffffffffffffffffffffffffffffffffffff1673ffffffffffffffffffffffffffffffffffffffff1681526020019081526020016000206000828254610e719190611cc9565b92505081905550816002600083815260200190815260200160002060006101000a81548173ffffffffffffffffffffffffffffffffffffffff021916908373ffffffffffffffffffffffffffffffffffffffff160217905550808273ffffffffffffffffffffffffffffffffffffffff168473ffffffffffffffffffffffffffffffffffffffff167fddf252ad1be2c89b69c2b068fc378daa952ba7f163c4a11628f55a4df523b3ef60405160405180910390a4505050565b8173ffffffffffffffffffffffffffffffffffffffff168373ffffffffffffffffffffffffffffffffffffffff161415610f99576040517f08c379a0000000000000000000000000000000000000000000000000000000008152600401610f9090611ad5565b60405180910390fd5b80600560008573ffffffffffffffffffffffffffffffffffffffff1673ffffffffffffffffffffffffffffffffffffffff16815260200190815260200160002060008473ffffffffffffffffffffffffffffffffffffffff1673ffffffffffffffffffffffffffffffffffffffff16815260200190815260200160002060006101000a81548160ff0219169083151502179055508173ffffffffffffffffffffffffffffffffffffffff168373ffffffffffffffffffffffffffffffffffffffff167f17307eab39ab6107e8899845ad3d59bd9653f200f220920489ca2b5937696c318360405161108a9190611a58565b60405180910390a3505050565b6110a2848484610cce565b6110ae848484846112bc565b6110ed576040517f08c379a00000000000000000000000000000000000000000000000000000000081526004016110e490611a95565b60405180910390fd5b50505050565b606060405180602001604052806000815250905090565b60606000821415611152576040518060400160405280600181526020017f300000000000000000000000000000000000000000000000000000000000000081525090506112b2565b600082905060005b6000821461118457808061116d90611e9d565b915050600a8261117d9190611d1f565b915061115a565b60008167ffffffffffffffff8111156111c6577f4e487b7100000000000000000000000000000000000000000000000000000000600052604160045260246000fd5b6040519080825280601f01601f1916602001820160405280156111f85781602001600182028036833780820191505090505b5090505b600085146112ab576001826112119190611d50565b9150600a856112209190611ee6565b603061122c9190611cc9565b60f81b818381518110611268577f4e487b7100000000000000000000000000000000000000000000000000000000600052603260045260246000fd5b60200101907effffffffffffffffffffffffffffffffffffffffffffffffffffffffffffff1916908160001a905350600a856112a49190611d1f565b94506111fc565b8093505050505b919050565b505050565b60006112dd8473ffffffffffffffffffffffffffffffffffffffff16611453565b15611446578373ffffffffffffffffffffffffffffffffffffffff1663150b7a02611306610b2f565b8786866040518563ffffffff1660e01b81526004016113289493929190611a0c565b602060405180830381600087803b15801561134257600080fd5b505af192505050801561137357506040513d601f19601f820116820180604052508101906113709190611707565b60015b6113f6573d80600081146113a3576040519150601f19603f3d011682016040523d82523d6000602084013e6113a8565b606091505b506000815114156113ee576040517f08c379a00000000000000000000000000000000000000000000000000000000081526004016113e590611a95565b60405180910390fd5b805181602001fd5b63150b7a0260e01b7bffffffffffffffffffffffffffffffffffffffffffffffffffffffff1916817bffffffffffffffffffffffffffffffffffffffffffffffffffffffff19161491505061144b565b600190505b949350505050565b600080823b905060008111915050919050565b600061147961147484611c55565b611c30565b90508281526020810184848401111561149157600080fd5b61149c848285611df8565b509392505050565b6000813590506114b381612372565b92915050565b6000813590506114c881612389565b92915050565b6000813590506114dd816123a0565b92915050565b6000815190506114f2816123a0565b92915050565b600082601f83011261150957600080fd5b8135611519848260208601611466565b91505092915050565b600081359050611531816123b7565b92915050565b60006020828403121561154957600080fd5b6000611557848285016114a4565b91505092915050565b6000806040838503121561157357600080fd5b6000611581858286016114a4565b9250506020611592858286016114a4565b9150509250929050565b6000806000606084860312156115b157600080fd5b60006115bf868287016114a4565b93505060206115d0868287016114a4565b92505060406115e186828701611522565b9150509250925092565b6000806000806080858703121561160157600080fd5b600061160f878288016114a4565b9450506020611620878288016114a4565b935050604061163187828801611522565b925050606085013567ffffffffffffffff81111561164e57600080fd5b61165a878288016114f8565b91505092959194509250565b6000806040838503121561167957600080fd5b6000611687858286016114a4565b9250506020611698858286016114b9565b9150509250929050565b600080604083850312156116b557600080fd5b60006116c3858286016114a4565b92505060206116d485828601611522565b9150509250929050565b6000602082840312156116f057600080fd5b60006116fe848285016114ce565b91505092915050565b60006020828403121561171957600080fd5b6000611727848285016114e3565b91505092915050565b60006020828403121561174257600080fd5b600061175084828501611522565b91505092915050565b61176281611d84565b82525050565b61177181611d96565b82525050565b600061178282611c86565b61178c8185611c9c565b935061179c818560208601611e07565b6117a581611fd3565b840191505092915050565b60006117bb82611c91565b6117c58185611cad565b93506117d5818560208601611e07565b6117de81611fd3565b840191505092915050565b60006117f482611c91565b6117fe8185611cbe565b935061180e818560208601611e07565b80840191505092915050565b6000611827603283611cad565b915061183282611fe4565b604082019050919050565b600061184a602483611cad565b915061185582612033565b604082019050919050565b600061186d601983611cad565b915061187882612082565b602082019050919050565b6000611890602c83611cad565b915061189b826120ab565b604082019050919050565b60006118b3603883611cad565b91506118be826120fa565b604082019050919050565b60006118d6602a83611cad565b91506118e182612149565b604082019050919050565b60006118f9602983611cad565b915061190482612198565b604082019050919050565b600061191c602c83611cad565b9150611927826121e7565b604082019050919050565b600061193f602983611cad565b915061194a82612236565b604082019050919050565b6000611962602f83611cad565b915061196d82612285565b604082019050919050565b6000611985602183611cad565b9150611990826122d4565b604082019050919050565b60006119a8603183611cad565b91506119b382612323565b604082019050919050565b6119c781611dee565b82525050565b60006119d982856117e9565b91506119e582846117e9565b91508190509392505050565b6000602082019050611a066000830184611759565b92915050565b6000608082019050611a216000830187611759565b611a2e6020830186611759565b611a3b60408301856119be565b8181036060830152611a4d8184611777565b905095945050505050565b6000602082019050611a6d6000830184611768565b92915050565b60006020820190508181036000830152611a8d81846117b0565b905092915050565b60006020820190508181036000830152611aae8161181a565b9050919050565b60006020820190508181036000830152611ace8161183d565b9050919050565b60006020820190508181036000830152611aee81611860565b9050919050565b60006020820190508181036000830152611b0e81611883565b9050919050565b60006020820190508181036000830152611b2e816118a6565b9050919050565b60006020820190508181036000830152611b4e816118c9565b9050919050565b60006020820190508181036000830152611b6e816118ec565b9050919050565b60006020820190508181036000830152611b8e8161190f565b9050919050565b60006020820190508181036000830152611bae81611932565b9050919050565b60006020820190508181036000830152611bce81611955565b9050919050565b60006020820190508181036000830152611bee81611978565b9050919050565b60006020820190508181036000830152611c0e8161199b565b9050919050565b6000602082019050611c2a60008301846119be565b92915050565b6000611c3a611c4b565b9050611c468282611e6c565b919050565b6000604051905090565b600067ffffffffffffffff821115611c7057611c6f611fa4565b5b611c7982611fd3565b9050602081019050919050565b600081519050919050565b600081519050919050565b600082825260208201905092915050565b600082825260208201905092915050565b600081905092915050565b6000611cd482611dee565b9150611cdf83611dee565b9250827fffffffffffffffffffffffffffffffffffffffffffffffffffffffffffffffff03821115611d1457611d13611f17565b5b828201905092915050565b6000611d2a82611dee565b9150611d3583611dee565b925082611d4557611d44611f46565b5b828204905092915050565b6000611d5b82611dee565b9150611d6683611dee565b925082821015611d7957611d78611f17565b5b828203905092915050565b6000611d8f82611dce565b9050919050565b60008115159050919050565b60007fffffffff0000000000000000000000000000000000000000000000000000000082169050919050565b600073ffffffffffffffffffffffffffffffffffffffff82169050919050565b6000819050919050565b82818337600083830152505050565b60005b83811015611e25578082015181840152602081019050611e0a565b83811115611e34576000848401525b50505050565b60006002820490506001821680611e5257607f821691505b60208210811415611e6657611e65611f75565b5b50919050565b611e7582611fd3565b810181811067ffffffffffffffff82111715611e9457611e93611fa4565b5b80604052505050565b6000611ea882611dee565b91507fffffffffffffffffffffffffffffffffffffffffffffffffffffffffffffffff821415611edb57611eda611f17565b5b600182019050919050565b6000611ef182611dee565b9150611efc83611dee565b925082611f0c57611f0b611f46565b5b828206905092915050565b7f4e487b7100000000000000000000000000000000000000000000000000000000600052601160045260246000fd5b7f4e487b7100000000000000000000000000000000000000000000000000000000600052601260045260246000fd5b7f4e487b7100000000000000000000000000000000000000000000000000000000600052602260045260246000fd5b7f4e487b7100000000000000000000000000000000000000000000000000000000600052604160045260246000fd5b6000601f19601f8301169050919050565b7f4552433732313a207472616e7366657220746f206e6f6e20455243373231526560008201527f63656976657220696d706c656d656e7465720000000000000000000000000000602082015250565b7f4552433732313a207472616e7366657220746f20746865207a65726f2061646460008201527f7265737300000000000000000000000000000000000000000000000000000000602082015250565b7f4552433732313a20617070726f766520746f2063616c6c657200000000000000600082015250565b7f4552433732313a206f70657261746f7220717565727920666f72206e6f6e657860008201527f697374656e7420746f6b656e0000000000000000000000000000000000000000602082015250565b7f4552433732313a20617070726f76652063616c6c6572206973206e6f74206f7760008201527f6e6572206e6f7220617070726f76656420666f7220616c6c0000000000000000602082015250565b7f4552433732313a2062616c616e636520717565727920666f7220746865207a6560008201527f726f206164647265737300000000000000000000000000000000000000000000602082015250565b7f4552433732313a206f776e657220717565727920666f72206e6f6e657869737460008201527f656e7420746f6b656e0000000000000000000000000000000000000000000000602082015250565b7f4552433732313a20617070726f76656420717565727920666f72206e6f6e657860008201527f697374656e7420746f6b656e0000000000000000000000000000000000000000602082015250565b7f4552433732313a207472616e73666572206f6620746f6b656e2074686174206960008201527f73206e6f74206f776e0000000000000000000000000000000000000000000000602082015250565b7f4552433732314d657461646174613a2055524920717565727920666f72206e6f60008201527f6e6578697374656e7420746f6b656e0000000000000000000000000000000000602082015250565b7f4552433732313a20617070726f76616c20746f2063757272656e74206f776e6560008201527f7200000000000000000000000000000000000000000000000000000000000000602082015250565b7f4552433732313a207472616e736665722063616c6c6572206973206e6f74206f60008201527f776e6572206e6f7220617070726f766564000000000000000000000000000000602082015250565b61237b81611d84565b811461238657600080fd5b50565b61239281611d96565b811461239d57600080fd5b50565b6123a981611da2565b81146123b457600080fd5b50565b6123c081611dee565b81146123cb57600080fd5b5056fea26469706673582212204e01cbe20f3010802b674bd415e3a78adc53b8d87be639013a5687f51d4b552c64736f6c63430008040033",
  "immutableReferences": {},
  "source": "\n// SPDX-License-Identifier: AGPL-3.0-or-later\n\npragma solidity 0.8.4;\nimport '@openzeppelin/contracts/token/ERC721/ERC721.sol';\ncontract AvaraNft is ERC721{\n    constructor(string memory name, string memory symbol) ERC721(name, symbol) {}\n}",
  "sourcePath": "/home/oncemore/Blockchain/avara-test/contract/contracts/NFT/AvaraNft.sol",
  "compiler": {
    "name": "solc",
    "version": "0.8.4+commit.c7e474f2.Emscripten.clang"
  },
  "schemaVersion": "3.3.4",
  "updatedAt": "2022-01-27T12:55:41.413Z",
  "devdoc": {
    "kind": "dev",
    "methods": {
      "approve(address,uint256)": {
        "details": "See {IERC721-approve}."
      },
      "balanceOf(address)": {
        "details": "See {IERC721-balanceOf}."
      },
      "getApproved(uint256)": {
        "details": "See {IERC721-getApproved}."
      },
      "isApprovedForAll(address,address)": {
        "details": "See {IERC721-isApprovedForAll}."
      },
      "name()": {
        "details": "See {IERC721Metadata-name}."
      },
      "ownerOf(uint256)": {
        "details": "See {IERC721-ownerOf}."
      },
      "safeTransferFrom(address,address,uint256)": {
        "details": "See {IERC721-safeTransferFrom}."
      },
      "safeTransferFrom(address,address,uint256,bytes)": {
        "details": "See {IERC721-safeTransferFrom}."
      },
      "setApprovalForAll(address,bool)": {
        "details": "See {IERC721-setApprovalForAll}."
      },
      "supportsInterface(bytes4)": {
        "details": "See {IERC165-supportsInterface}."
      },
      "symbol()": {
        "details": "See {IERC721Metadata-symbol}."
      },
      "tokenURI(uint256)": {
        "details": "See {IERC721Metadata-tokenURI}."
      },
      "transferFrom(address,address,uint256)": {
        "details": "See {IERC721-transferFrom}."
      }
    },
    "version": 1
  },
  "userdoc": {
    "kind": "user",
    "methods": {},
    "version": 1
  }
}