{
  "contractName": "OwnershipModule",
  "abi": [
    {
      "inputs": [
        {
          "internalType": "address",
          "name": "cOwner",
          "type": "address"
        },
        {
          "internalType": "address",
          "name": "baseContract",
          "type": "address"
        },
        {
          "internalType": "address",
          "name": "avaraNftContract",
          "type": "address"
        },
        {
          "internalType": "address",
          "name": "avaraContract",
          "type": "address"
        }
      ],
      "stateMutability": "nonpayable",
      "type": "constructor"
    },
    {
      "anonymous": false,
      "inputs": [
        {
          "indexed": true,
          "internalType": "address",
          "name": "previousOwner",
          "type": "address"
        },
        {
          "indexed": true,
          "internalType": "address",
          "name": "newOwner",
          "type": "address"
        }
      ],
      "name": "OwnershipTransferred",
      "type": "event"
    },
    {
      "inputs": [],
      "name": "Avara",
      "outputs": [
        {
          "internalType": "contract IERC20",
          "name": "",
          "type": "address"
        }
      ],
      "stateMutability": "view",
      "type": "function"
    },
    {
      "inputs": [],
      "name": "AvaraNFT",
      "outputs": [
        {
          "internalType": "contract IERC721",
          "name": "",
          "type": "address"
        }
      ],
      "stateMutability": "view",
      "type": "function"
    },
    {
      "inputs": [],
      "name": "moduleName",
      "outputs": [
        {
          "internalType": "string",
          "name": "",
          "type": "string"
        }
      ],
      "stateMutability": "view",
      "type": "function"
    },
    {
      "inputs": [],
      "name": "moduleVersion",
      "outputs": [
        {
          "internalType": "string",
          "name": "",
          "type": "string"
        }
      ],
      "stateMutability": "view",
      "type": "function"
    },
    {
      "inputs": [],
      "name": "owner",
      "outputs": [
        {
          "internalType": "address",
          "name": "",
          "type": "address"
        }
      ],
      "stateMutability": "view",
      "type": "function"
    },
    {
      "inputs": [],
      "name": "previousOwner",
      "outputs": [
        {
          "internalType": "address",
          "name": "",
          "type": "address"
        }
      ],
      "stateMutability": "view",
      "type": "function"
    },
    {
      "inputs": [],
      "name": "renounceOwnership",
      "outputs": [],
      "stateMutability": "nonpayable",
      "type": "function"
    },
    {
      "inputs": [
        {
          "internalType": "address",
          "name": "newOwner",
          "type": "address"
        }
      ],
      "name": "transferOwnership",
      "outputs": [],
      "stateMutability": "nonpayable",
      "type": "function"
    },
    {
      "inputs": [
        {
          "internalType": "uint256",
          "name": "nftId",
          "type": "uint256"
        },
        {
          "internalType": "uint256",
          "name": "price_",
          "type": "uint256"
        }
      ],
      "name": "setSelling",
      "outputs": [],
      "stateMutability": "nonpayable",
      "type": "function"
    },
    {
      "inputs": [],
      "name": "ping",
      "outputs": [
        {
          "internalType": "string",
          "name": "",
          "type": "string"
        }
      ],
      "stateMutability": "view",
      "type": "function"
    }
  ],
  "bytecode": "0x60806040523480156200001157600080fd5b506040516200183a3803806200183a8339818101604052810190620000379190620004e2565b83836040518060400160405280600981526020017f4f776e65727368697000000000000000000000000000000000000000000000008152506040518060400160405280600581526020017f302e302e3100000000000000000000000000000000000000000000000000000081525083620000b781620002cf60201b60201c565b5082600260006101000a81548173ffffffffffffffffffffffffffffffffffffffff021916908373ffffffffffffffffffffffffffffffffffffffff1602179055508373ffffffffffffffffffffffffffffffffffffffff16600260009054906101000a900473ffffffffffffffffffffffffffffffffffffffff1673ffffffffffffffffffffffffffffffffffffffff16638da5cb5b6040518163ffffffff1660e01b815260040160206040518083038186803b1580156200017957600080fd5b505afa1580156200018e573d6000803e3d6000fd5b505050506040513d601f19601f82011682018060405250810190620001b49190620004b6565b73ffffffffffffffffffffffffffffffffffffffff16146200020d576040517f08c379a0000000000000000000000000000000000000000000000000000000008152600401620002049062000575565b60405180910390fd5b816003908051906020019062000225929190620003ef565b5080600490805190602001906200023e929190620003ef565b505050505081600560006101000a81548173ffffffffffffffffffffffffffffffffffffffff021916908373ffffffffffffffffffffffffffffffffffffffff16021790555080600660006101000a81548173ffffffffffffffffffffffffffffffffffffffff021916908373ffffffffffffffffffffffffffffffffffffffff16021790555050505050620006aa565b60008054906101000a900473ffffffffffffffffffffffffffffffffffffffff16600160006101000a81548173ffffffffffffffffffffffffffffffffffffffff021916908373ffffffffffffffffffffffffffffffffffffffff160217905550806000806101000a81548173ffffffffffffffffffffffffffffffffffffffff021916908373ffffffffffffffffffffffffffffffffffffffff1602179055508073ffffffffffffffffffffffffffffffffffffffff16600160009054906101000a900473ffffffffffffffffffffffffffffffffffffffff1673ffffffffffffffffffffffffffffffffffffffff167f8be0079c531659141344cd1fd0a4f28419497f9722a3daafe3b4186f6b6457e060405160405180910390a350565b828054620003fd90620005dc565b90600052602060002090601f0160209004810192826200042157600085556200046d565b82601f106200043c57805160ff19168380011785556200046d565b828001600101855582156200046d579182015b828111156200046c5782518255916020019190600101906200044f565b5b5090506200047c919062000480565b5090565b5b808211156200049b57600081600090555060010162000481565b5090565b600081519050620004b08162000690565b92915050565b600060208284031215620004c957600080fd5b6000620004d9848285016200049f565b91505092915050565b60008060008060808587031215620004f957600080fd5b600062000509878288016200049f565b94505060206200051c878288016200049f565b93505060406200052f878288016200049f565b925050606062000542878288016200049f565b91505092959194509250565b60006200055d603b8362000597565b91506200056a8262000641565b604082019050919050565b6000602082019050818103600083015262000590816200054e565b9050919050565b600082825260208201905092915050565b6000620005b582620005bc565b9050919050565b600073ffffffffffffffffffffffffffffffffffffffff82169050919050565b60006002820490506001821680620005f557607f821691505b602082108114156200060c576200060b62000612565b5b50919050565b7f4e487b7100000000000000000000000000000000000000000000000000000000600052602260045260246000fd5b7f546865206d6f64756c65206465706c6f796572206d757374206265207468652060008201527f6f776e6572206f6620746865206261736520636f6e7472616374210000000000602082015250565b6200069b81620005a8565b8114620006a757600080fd5b50565b61118080620006ba6000396000f3fe608060405234801561001057600080fd5b506004361061009e5760003560e01c8063715018a611610066578063715018a6146101375780638da5cb5b1461014157806393f0899a1461015f578063baa3b4d71461017d578063f2fde38b1461019b5761009e565b80631032dd60146100a357806313b2a691146100c1578063180617ef146100df5780635c36b186146100fb578063674f220f14610119575b600080fd5b6100ab6101b7565b6040516100b89190610ccf565b60405180910390f35b6100c96101dd565b6040516100d69190610cea565b60405180910390f35b6100f960048036038101906100f49190610b77565b610203565b005b6101036104a9565b6040516101109190610d05565b60405180910390f35b6101216105b6565b60405161012e9190610cb4565b60405180910390f35b61013f6105e0565b005b610149610668565b6040516101569190610cb4565b60405180910390f35b610167610691565b6040516101749190610d05565b60405180910390f35b610185610723565b6040516101929190610d05565b60405180910390f35b6101b560048036038101906101b09190610abb565b6107b5565b005b600660009054906101000a900473ffffffffffffffffffffffffffffffffffffffff1681565b600560009054906101000a900473ffffffffffffffffffffffffffffffffffffffff1681565b600560009054906101000a900473ffffffffffffffffffffffffffffffffffffffff1673ffffffffffffffffffffffffffffffffffffffff16634f558e79836040518263ffffffff1660e01b815260040161025e9190610da7565b60206040518083038186803b15801561027657600080fd5b505afa15801561028a573d6000803e3d6000fd5b505050506040513d601f19601f820116820180604052508101906102ae9190610b0d565b6102ed576040517f08c379a00000000000000000000000000000000000000000000000000000000081526004016102e490610d67565b60405180910390fd5b6102f56108ad565b73ffffffffffffffffffffffffffffffffffffffff16600560009054906101000a900473ffffffffffffffffffffffffffffffffffffffff1673ffffffffffffffffffffffffffffffffffffffff16636352211e846040518263ffffffff1660e01b81526004016103669190610da7565b60206040518083038186803b15801561037e57600080fd5b505afa158015610392573d6000803e3d6000fd5b505050506040513d601f19601f820116820180604052508101906103b69190610ae4565b73ffffffffffffffffffffffffffffffffffffffff161461040c576040517f08c379a000000000000000000000000000000000000000000000000000000000815260040161040390610d27565b60405180910390fd5b60405180604001604052808281526020016104256108ad565b73ffffffffffffffffffffffffffffffffffffffff16815250600760008481526020019081526020016000206000820151816000015560208201518160010160006101000a81548173ffffffffffffffffffffffffffffffffffffffff021916908373ffffffffffffffffffffffffffffffffffffffff1602179055509050505050565b60606104b36108ad565b73ffffffffffffffffffffffffffffffffffffffff166104d1610668565b73ffffffffffffffffffffffffffffffffffffffff1614610527576040517f08c379a000000000000000000000000000000000000000000000000000000000815260040161051e90610d87565b60405180910390fd5b61052f6108b5565b73ffffffffffffffffffffffffffffffffffffffff16635c36b1866040518163ffffffff1660e01b815260040160006040518083038186803b15801561057457600080fd5b505afa158015610588573d6000803e3d6000fd5b505050506040513d6000823e3d601f19601f820116820180604052508101906105b19190610b36565b905090565b6000600160009054906101000a900473ffffffffffffffffffffffffffffffffffffffff16905090565b6105e86108ad565b73ffffffffffffffffffffffffffffffffffffffff16610606610668565b73ffffffffffffffffffffffffffffffffffffffff161461065c576040517f08c379a000000000000000000000000000000000000000000000000000000000815260040161065390610d87565b60405180910390fd5b61066660006108df565b565b60008060009054906101000a900473ffffffffffffffffffffffffffffffffffffffff16905090565b6060600380546106a090610ef7565b80601f01602080910402602001604051908101604052809291908181526020018280546106cc90610ef7565b80156107195780601f106106ee57610100808354040283529160200191610719565b820191906000526020600020905b8154815290600101906020018083116106fc57829003601f168201915b5050505050905090565b60606004805461073290610ef7565b80601f016020809104026020016040519081016040528092919081815260200182805461075e90610ef7565b80156107ab5780601f10610780576101008083540402835291602001916107ab565b820191906000526020600020905b81548152906001019060200180831161078e57829003601f168201915b5050505050905090565b6107bd6108ad565b73ffffffffffffffffffffffffffffffffffffffff166107db610668565b73ffffffffffffffffffffffffffffffffffffffff1614610831576040517f08c379a000000000000000000000000000000000000000000000000000000000815260040161082890610d87565b60405180910390fd5b600073ffffffffffffffffffffffffffffffffffffffff168173ffffffffffffffffffffffffffffffffffffffff1614156108a1576040517f08c379a000000000000000000000000000000000000000000000000000000000815260040161089890610d47565b60405180910390fd5b6108aa816108df565b50565b600033905090565b6000600260009054906101000a900473ffffffffffffffffffffffffffffffffffffffff16905090565b60008054906101000a900473ffffffffffffffffffffffffffffffffffffffff16600160006101000a81548173ffffffffffffffffffffffffffffffffffffffff021916908373ffffffffffffffffffffffffffffffffffffffff160217905550806000806101000a81548173ffffffffffffffffffffffffffffffffffffffff021916908373ffffffffffffffffffffffffffffffffffffffff1602179055508073ffffffffffffffffffffffffffffffffffffffff16600160009054906101000a900473ffffffffffffffffffffffffffffffffffffffff1673ffffffffffffffffffffffffffffffffffffffff167f8be0079c531659141344cd1fd0a4f28419497f9722a3daafe3b4186f6b6457e060405160405180910390a350565b6000610a12610a0d84610de7565b610dc2565b905082815260208101848484011115610a2a57600080fd5b610a35848285610ec4565b509392505050565b600081359050610a4c81611105565b92915050565b600081519050610a6181611105565b92915050565b600081519050610a768161111c565b92915050565b600082601f830112610a8d57600080fd5b8151610a9d8482602086016109ff565b91505092915050565b600081359050610ab581611133565b92915050565b600060208284031215610acd57600080fd5b6000610adb84828501610a3d565b91505092915050565b600060208284031215610af657600080fd5b6000610b0484828501610a52565b91505092915050565b600060208284031215610b1f57600080fd5b6000610b2d84828501610a67565b91505092915050565b600060208284031215610b4857600080fd5b600082015167ffffffffffffffff811115610b6257600080fd5b610b6e84828501610a7c565b91505092915050565b60008060408385031215610b8a57600080fd5b6000610b9885828601610aa6565b9250506020610ba985828601610aa6565b9150509250929050565b610bbc81610e34565b82525050565b610bcb81610e7c565b82525050565b610bda81610ea0565b82525050565b6000610beb82610e18565b610bf58185610e23565b9350610c05818560208601610ec4565b610c0e81610fb8565b840191505092915050565b6000610c26603b83610e23565b9150610c3182610fc9565b604082019050919050565b6000610c49603083610e23565b9150610c5482611018565b604082019050919050565b6000610c6c602e83610e23565b9150610c7782611067565b604082019050919050565b6000610c8f602583610e23565b9150610c9a826110b6565b604082019050919050565b610cae81610e72565b82525050565b6000602082019050610cc96000830184610bb3565b92915050565b6000602082019050610ce46000830184610bc2565b92915050565b6000602082019050610cff6000830184610bd1565b92915050565b60006020820190508181036000830152610d1f8184610be0565b905092915050565b60006020820190508181036000830152610d4081610c19565b9050919050565b60006020820190508181036000830152610d6081610c3c565b9050919050565b60006020820190508181036000830152610d8081610c5f565b9050919050565b60006020820190508181036000830152610da081610c82565b9050919050565b6000602082019050610dbc6000830184610ca5565b92915050565b6000610dcc610ddd565b9050610dd88282610f29565b919050565b6000604051905090565b600067ffffffffffffffff821115610e0257610e01610f89565b5b610e0b82610fb8565b9050602081019050919050565b600081519050919050565b600082825260208201905092915050565b6000610e3f82610e52565b9050919050565b60008115159050919050565b600073ffffffffffffffffffffffffffffffffffffffff82169050919050565b6000819050919050565b6000610e8782610e8e565b9050919050565b6000610e9982610e52565b9050919050565b6000610eab82610eb2565b9050919050565b6000610ebd82610e52565b9050919050565b60005b83811015610ee2578082015181840152602081019050610ec7565b83811115610ef1576000848401525b50505050565b60006002820490506001821680610f0f57607f821691505b60208210811415610f2357610f22610f5a565b5b50919050565b610f3282610fb8565b810181811067ffffffffffffffff82111715610f5157610f50610f89565b5b80604052505050565b7f4e487b7100000000000000000000000000000000000000000000000000000000600052602260045260246000fd5b7f4e487b7100000000000000000000000000000000000000000000000000000000600052604160045260246000fd5b6000601f19601f8301169050919050565b7f4d61726b6574706c6163652e73656c6c696e674e46543a2053656e646572206860008201527f617320746f20626520746865206f776e6572206f6620746f6b656e0000000000602082015250565b7f4f776e61626c653a20546865206e6577206f776e6572206973206e6f772c207460008201527f6865207a65726f20616464726573732100000000000000000000000000000000602082015250565b7f4d61726b6574706c6163652e73656c6c696e674e46543a20546f6b656e49442060008201527f646f6573206e6f74206578697374000000000000000000000000000000000000602082015250565b7f4f776e61626c653a205468652063616c6c6572206973206e6f7420746865206f60008201527f776e657221000000000000000000000000000000000000000000000000000000602082015250565b61110e81610e34565b811461111957600080fd5b50565b61112581610e46565b811461113057600080fd5b50565b61113c81610e72565b811461114757600080fd5b5056fea26469706673582212202e754af94e2cebfe25288548e7bdbd0907dd4f1d13d7ce8caba90250b478fa9964736f6c63430008040033",
  "immutableReferences": {},
  "source": "/**\n    ***********************************************************\n    * Copyright (c) Avara Dev. 2021. (Telegram: @avara_cc)  *\n    ***********************************************************\n\n             \n          \n       \n         \n        .       .       - Binance Smart Chain\n\n    Avara - Always Vivid, Always Rising Above\n    https://avara.cc/\n    https://github.com/avara-cc\n    https://github.com/avara-cc/Avara/wiki\n*/\n\n// SPDX-License-Identifier: AGPL-3.0-or-later\n\npragma solidity 0.8.4;\n\nimport \"./abstract/AvaraModule.sol\";\nimport \"./library/SafeMath.sol\";\nimport \"@openzeppelin/contracts/token/ERC721/IERC721.sol\";\nimport \"@openzeppelin/contracts/token/ERC20/IERC20.sol\";\n\ncontract OwnershipModule is AvaraModule {\n    IERC721 public AvaraNFT;\n    IERC20 public Avara;\n    constructor(address cOwner, address baseContract, address avaraNftContract, address avaraContract) AvaraModule(cOwner, baseContract, \"Ownership\", \"0.0.1\") {\n        AvaraNFT = IERC721(avaraNftContract);\n        Avara = IERC20(avaraContract);\n    }\n\n    struct SellNft {\n        uint256 price;\n        address seller;\n    }\n    mapping(uint256 => SellNft) sellNftList;\n    function setSelling(uint256 nftId, uint256 price_) public {\n        require(AvaraNFT.exists(nftId), \"Marketplace.sellingNFT: TokenID does not exist\");\n        require(AvaraNFT.ownerOf(nftId) == _msgSender(), \"Marketplace.sellingNFT: Sender has to be the owner of token\");\n        sellNftList[nftId] = SellNft({\n            price: price_,\n            seller: _msgSender()\n        });\n    }\n    /**\n    * @dev Occasionally called (only) by the server to make sure that the connection with the module and main contract is granted.\n    */\n    function ping() external view onlyOwner returns (string memory) {\n        return getBaseContract().ping();\n    }\n}",
  "sourcePath": "/home/oncemore/Blockchain/avara-test/contract/contracts/OwnershipModule.sol",
  "compiler": {
    "name": "solc",
    "version": "0.8.4+commit.c7e474f2.Emscripten.clang"
  },
  "schemaVersion": "3.3.4",
  "updatedAt": "2022-01-27T10:16:05.463Z",
  "devdoc": {
    "kind": "dev",
    "methods": {
      "moduleName()": {
        "details": "Returns the module name."
      },
      "moduleVersion()": {
        "details": "Returns the module version."
      },
      "owner()": {
        "details": "Returns the address of the current owner."
      },
      "ping()": {
        "details": "Occasionally called (only) by the server to make sure that the connection with the module and main contract is granted."
      },
      "previousOwner()": {
        "details": "Returns the address of the previous owner."
      },
      "renounceOwnership()": {
        "details": "Leaves the contract without an owner. It won't be possible to call `onlyOwner` functions anymore. Can only be called by the current owner."
      },
      "transferOwnership(address)": {
        "details": "Transfers ownership of the contract to a new account (`newOwner`). Can only be called by the current owner."
      }
    },
    "version": 1
  },
  "userdoc": {
    "kind": "user",
    "methods": {},
    "version": 1
  }
}