{
  "contractName": "OwnershipModule",
  "abi": [
    {
      "inputs": [
        {
          "internalType": "address",
          "name": "cOwner",
          "type": "address"
        },
        {
          "internalType": "address",
          "name": "baseContract",
          "type": "address"
        },
        {
          "internalType": "address",
          "name": "avaraNftContract",
          "type": "address"
        },
        {
          "internalType": "address",
          "name": "avaraContract",
          "type": "address"
        }
      ],
      "stateMutability": "nonpayable",
      "type": "constructor"
    },
    {
      "anonymous": false,
      "inputs": [
        {
          "indexed": true,
          "internalType": "address",
          "name": "previousOwner",
          "type": "address"
        },
        {
          "indexed": true,
          "internalType": "address",
          "name": "newOwner",
          "type": "address"
        }
      ],
      "name": "OwnershipTransferred",
      "type": "event"
    },
    {
      "inputs": [],
      "name": "Avara",
      "outputs": [
        {
          "internalType": "contract IERC20",
          "name": "",
          "type": "address"
        }
      ],
      "stateMutability": "view",
      "type": "function"
    },
    {
      "inputs": [],
      "name": "AvaraNFT",
      "outputs": [
        {
          "internalType": "contract IERC721",
          "name": "",
          "type": "address"
        }
      ],
      "stateMutability": "view",
      "type": "function"
    },
    {
      "inputs": [],
      "name": "moduleName",
      "outputs": [
        {
          "internalType": "string",
          "name": "",
          "type": "string"
        }
      ],
      "stateMutability": "view",
      "type": "function"
    },
    {
      "inputs": [],
      "name": "moduleVersion",
      "outputs": [
        {
          "internalType": "string",
          "name": "",
          "type": "string"
        }
      ],
      "stateMutability": "view",
      "type": "function"
    },
    {
      "inputs": [],
      "name": "owner",
      "outputs": [
        {
          "internalType": "address",
          "name": "",
          "type": "address"
        }
      ],
      "stateMutability": "view",
      "type": "function"
    },
    {
      "inputs": [],
      "name": "previousOwner",
      "outputs": [
        {
          "internalType": "address",
          "name": "",
          "type": "address"
        }
      ],
      "stateMutability": "view",
      "type": "function"
    },
    {
      "inputs": [],
      "name": "renounceOwnership",
      "outputs": [],
      "stateMutability": "nonpayable",
      "type": "function"
    },
    {
      "inputs": [
        {
          "internalType": "address",
          "name": "newOwner",
          "type": "address"
        }
      ],
      "name": "transferOwnership",
      "outputs": [],
      "stateMutability": "nonpayable",
      "type": "function"
    },
    {
      "inputs": [
        {
          "internalType": "uint256",
          "name": "nftId",
          "type": "uint256"
        }
      ],
      "name": "setSelling",
      "outputs": [],
      "stateMutability": "nonpayable",
      "type": "function"
    },
    {
      "inputs": [],
      "name": "ping",
      "outputs": [
        {
          "internalType": "string",
          "name": "",
          "type": "string"
        }
      ],
      "stateMutability": "view",
      "type": "function"
    }
  ],
  "bytecode": "0x60806040523480156200001157600080fd5b5060405162001397380380620013978339818101604052810190620000379190620004e2565b83836040518060400160405280600981526020017f4f776e65727368697000000000000000000000000000000000000000000000008152506040518060400160405280600581526020017f302e302e3100000000000000000000000000000000000000000000000000000081525083620000b781620002cf60201b60201c565b5082600260006101000a81548173ffffffffffffffffffffffffffffffffffffffff021916908373ffffffffffffffffffffffffffffffffffffffff1602179055508373ffffffffffffffffffffffffffffffffffffffff16600260009054906101000a900473ffffffffffffffffffffffffffffffffffffffff1673ffffffffffffffffffffffffffffffffffffffff16638da5cb5b6040518163ffffffff1660e01b815260040160206040518083038186803b1580156200017957600080fd5b505afa1580156200018e573d6000803e3d6000fd5b505050506040513d601f19601f82011682018060405250810190620001b49190620004b6565b73ffffffffffffffffffffffffffffffffffffffff16146200020d576040517f08c379a0000000000000000000000000000000000000000000000000000000008152600401620002049062000575565b60405180910390fd5b816003908051906020019062000225929190620003ef565b5080600490805190602001906200023e929190620003ef565b505050505081600560006101000a81548173ffffffffffffffffffffffffffffffffffffffff021916908373ffffffffffffffffffffffffffffffffffffffff16021790555080600660006101000a81548173ffffffffffffffffffffffffffffffffffffffff021916908373ffffffffffffffffffffffffffffffffffffffff16021790555050505050620006aa565b60008054906101000a900473ffffffffffffffffffffffffffffffffffffffff16600160006101000a81548173ffffffffffffffffffffffffffffffffffffffff021916908373ffffffffffffffffffffffffffffffffffffffff160217905550806000806101000a81548173ffffffffffffffffffffffffffffffffffffffff021916908373ffffffffffffffffffffffffffffffffffffffff1602179055508073ffffffffffffffffffffffffffffffffffffffff16600160009054906101000a900473ffffffffffffffffffffffffffffffffffffffff1673ffffffffffffffffffffffffffffffffffffffff167f8be0079c531659141344cd1fd0a4f28419497f9722a3daafe3b4186f6b6457e060405160405180910390a350565b828054620003fd90620005dc565b90600052602060002090601f0160209004810192826200042157600085556200046d565b82601f106200043c57805160ff19168380011785556200046d565b828001600101855582156200046d579182015b828111156200046c5782518255916020019190600101906200044f565b5b5090506200047c919062000480565b5090565b5b808211156200049b57600081600090555060010162000481565b5090565b600081519050620004b08162000690565b92915050565b600060208284031215620004c957600080fd5b6000620004d9848285016200049f565b91505092915050565b60008060008060808587031215620004f957600080fd5b600062000509878288016200049f565b94505060206200051c878288016200049f565b93505060406200052f878288016200049f565b925050606062000542878288016200049f565b91505092959194509250565b60006200055d603b8362000597565b91506200056a8262000641565b604082019050919050565b6000602082019050818103600083015262000590816200054e565b9050919050565b600082825260208201905092915050565b6000620005b582620005bc565b9050919050565b600073ffffffffffffffffffffffffffffffffffffffff82169050919050565b60006002820490506001821680620005f557607f821691505b602082108114156200060c576200060b62000612565b5b50919050565b7f4e487b7100000000000000000000000000000000000000000000000000000000600052602260045260246000fd5b7f546865206d6f64756c65206465706c6f796572206d757374206265207468652060008201527f6f776e6572206f6620746865206261736520636f6e7472616374210000000000602082015250565b6200069b81620005a8565b8114620006a757600080fd5b50565b610cdd80620006ba6000396000f3fe608060405234801561001057600080fd5b506004361061009e5760003560e01c80638da5cb5b116100665780638da5cb5b1461012557806393f0899a14610143578063baa3b4d714610161578063deffb2961461017f578063f2fde38b1461019b5761009e565b80631032dd60146100a357806313b2a691146100c15780635c36b186146100df578063674f220f146100fd578063715018a61461011b575b600080fd5b6100ab6101b7565b6040516100b89190610948565b60405180910390f35b6100c96101dd565b6040516100d69190610963565b60405180910390f35b6100e7610203565b6040516100f4919061097e565b60405180910390f35b610105610310565b604051610112919061092d565b60405180910390f35b61012361033a565b005b61012d6103c2565b60405161013a919061092d565b60405180910390f35b61014b6103eb565b604051610158919061097e565b60405180910390f35b61016961047d565b604051610176919061097e565b60405180910390f35b61019960048036038101906101949190610858565b61050f565b005b6101b560048036038101906101b091906107ee565b610512565b005b600660009054906101000a900473ffffffffffffffffffffffffffffffffffffffff1681565b600560009054906101000a900473ffffffffffffffffffffffffffffffffffffffff1681565b606061020d61060a565b73ffffffffffffffffffffffffffffffffffffffff1661022b6103c2565b73ffffffffffffffffffffffffffffffffffffffff1614610281576040517f08c379a0000000000000000000000000000000000000000000000000000000008152600401610278906109c0565b60405180910390fd5b610289610612565b73ffffffffffffffffffffffffffffffffffffffff16635c36b1866040518163ffffffff1660e01b815260040160006040518083038186803b1580156102ce57600080fd5b505afa1580156102e2573d6000803e3d6000fd5b505050506040513d6000823e3d601f19601f8201168201806040525081019061030b9190610817565b905090565b6000600160009054906101000a900473ffffffffffffffffffffffffffffffffffffffff16905090565b61034261060a565b73ffffffffffffffffffffffffffffffffffffffff166103606103c2565b73ffffffffffffffffffffffffffffffffffffffff16146103b6576040517f08c379a00000000000000000000000000000000000000000000000000000000081526004016103ad906109c0565b60405180910390fd5b6103c0600061063c565b565b60008060009054906101000a900473ffffffffffffffffffffffffffffffffffffffff16905090565b6060600380546103fa90610b09565b80601f016020809104026020016040519081016040528092919081815260200182805461042690610b09565b80156104735780601f1061044857610100808354040283529160200191610473565b820191906000526020600020905b81548152906001019060200180831161045657829003601f168201915b5050505050905090565b60606004805461048c90610b09565b80601f01602080910402602001604051908101604052809291908181526020018280546104b890610b09565b80156105055780601f106104da57610100808354040283529160200191610505565b820191906000526020600020905b8154815290600101906020018083116104e857829003601f168201915b5050505050905090565b50565b61051a61060a565b73ffffffffffffffffffffffffffffffffffffffff166105386103c2565b73ffffffffffffffffffffffffffffffffffffffff161461058e576040517f08c379a0000000000000000000000000000000000000000000000000000000008152600401610585906109c0565b60405180910390fd5b600073ffffffffffffffffffffffffffffffffffffffff168173ffffffffffffffffffffffffffffffffffffffff1614156105fe576040517f08c379a00000000000000000000000000000000000000000000000000000000081526004016105f5906109a0565b60405180910390fd5b6106078161063c565b50565b600033905090565b6000600260009054906101000a900473ffffffffffffffffffffffffffffffffffffffff16905090565b60008054906101000a900473ffffffffffffffffffffffffffffffffffffffff16600160006101000a81548173ffffffffffffffffffffffffffffffffffffffff021916908373ffffffffffffffffffffffffffffffffffffffff160217905550806000806101000a81548173ffffffffffffffffffffffffffffffffffffffff021916908373ffffffffffffffffffffffffffffffffffffffff1602179055508073ffffffffffffffffffffffffffffffffffffffff16600160009054906101000a900473ffffffffffffffffffffffffffffffffffffffff1673ffffffffffffffffffffffffffffffffffffffff167f8be0079c531659141344cd1fd0a4f28419497f9722a3daafe3b4186f6b6457e060405160405180910390a350565b600061076f61076a84610a05565b6109e0565b90508281526020810184848401111561078757600080fd5b610792848285610ad6565b509392505050565b6000813590506107a981610c79565b92915050565b600082601f8301126107c057600080fd5b81516107d084826020860161075c565b91505092915050565b6000813590506107e881610c90565b92915050565b60006020828403121561080057600080fd5b600061080e8482850161079a565b91505092915050565b60006020828403121561082957600080fd5b600082015167ffffffffffffffff81111561084357600080fd5b61084f848285016107af565b91505092915050565b60006020828403121561086a57600080fd5b6000610878848285016107d9565b91505092915050565b61088a81610a52565b82525050565b61089981610a8e565b82525050565b6108a881610ab2565b82525050565b60006108b982610a36565b6108c38185610a41565b93506108d3818560208601610ad6565b6108dc81610bca565b840191505092915050565b60006108f4603083610a41565b91506108ff82610bdb565b604082019050919050565b6000610917602583610a41565b915061092282610c2a565b604082019050919050565b60006020820190506109426000830184610881565b92915050565b600060208201905061095d6000830184610890565b92915050565b6000602082019050610978600083018461089f565b92915050565b6000602082019050818103600083015261099881846108ae565b905092915050565b600060208201905081810360008301526109b9816108e7565b9050919050565b600060208201905081810360008301526109d98161090a565b9050919050565b60006109ea6109fb565b90506109f68282610b3b565b919050565b6000604051905090565b600067ffffffffffffffff821115610a2057610a1f610b9b565b5b610a2982610bca565b9050602081019050919050565b600081519050919050565b600082825260208201905092915050565b6000610a5d82610a64565b9050919050565b600073ffffffffffffffffffffffffffffffffffffffff82169050919050565b6000819050919050565b6000610a9982610aa0565b9050919050565b6000610aab82610a64565b9050919050565b6000610abd82610ac4565b9050919050565b6000610acf82610a64565b9050919050565b60005b83811015610af4578082015181840152602081019050610ad9565b83811115610b03576000848401525b50505050565b60006002820490506001821680610b2157607f821691505b60208210811415610b3557610b34610b6c565b5b50919050565b610b4482610bca565b810181811067ffffffffffffffff82111715610b6357610b62610b9b565b5b80604052505050565b7f4e487b7100000000000000000000000000000000000000000000000000000000600052602260045260246000fd5b7f4e487b7100000000000000000000000000000000000000000000000000000000600052604160045260246000fd5b6000601f19601f8301169050919050565b7f4f776e61626c653a20546865206e6577206f776e6572206973206e6f772c207460008201527f6865207a65726f20616464726573732100000000000000000000000000000000602082015250565b7f4f776e61626c653a205468652063616c6c6572206973206e6f7420746865206f60008201527f776e657221000000000000000000000000000000000000000000000000000000602082015250565b610c8281610a52565b8114610c8d57600080fd5b50565b610c9981610a84565b8114610ca457600080fd5b5056fea2646970667358221220c295916fa04b523fee316920359bd291f0b14921e6dcba2997e0cfb8e03785d964736f6c63430008040033",
  "immutableReferences": {},
  "source": "/**\n    ***********************************************************\n    * Copyright (c) Avara Dev. 2021. (Telegram: @avara_cc)  *\n    ***********************************************************\n\n             \n          \n       \n         \n        .       .       - Binance Smart Chain\n\n    Avara - Always Vivid, Always Rising Above\n    https://avara.cc/\n    https://github.com/avara-cc\n    https://github.com/avara-cc/Avara/wiki\n*/\n\n// SPDX-License-Identifier: AGPL-3.0-or-later\n\npragma solidity 0.8.4;\n\nimport \"./abstract/AvaraModule.sol\";\nimport \"./library/SafeMath.sol\";\nimport \"@openzeppelin/contracts/token/ERC721/IERC721.sol\";\nimport \"@openzeppelin/contracts/token/ERC20/IERC20.sol\";\n\ncontract OwnershipModule is AvaraModule {\n    IERC721 public AvaraNFT;\n    IERC20 public Avara;\n    constructor(address cOwner, address baseContract, address avaraNftContract, address avaraContract) AvaraModule(cOwner, baseContract, \"Ownership\", \"0.0.1\") {\n        AvaraNFT = IERC721(avaraNftContract);\n        Avara = IERC20(avaraContract);\n    }\n\n    struct SellNft {\n        uint256 price;\n        address seller;\n    }\n    mapping(uint256 => SellNft) sellNftList;\n    function setSelling(uint256 nftId) public {\n\n    }\n    /**\n    * @dev Occasionally called (only) by the server to make sure that the connection with the module and main contract is granted.\n    */\n    function ping() external view onlyOwner returns (string memory) {\n        return getBaseContract().ping();\n    }\n}",
  "sourcePath": "/home/oncemore/Blockchain/avara-test/contract/contracts/OwnershipModule.sol",
  "compiler": {
    "name": "solc",
    "version": "0.8.4+commit.c7e474f2.Emscripten.clang"
  },
  "schemaVersion": "3.3.4",
  "updatedAt": "2022-01-27T10:11:16.102Z",
  "devdoc": {
    "kind": "dev",
    "methods": {
      "moduleName()": {
        "details": "Returns the module name."
      },
      "moduleVersion()": {
        "details": "Returns the module version."
      },
      "owner()": {
        "details": "Returns the address of the current owner."
      },
      "ping()": {
        "details": "Occasionally called (only) by the server to make sure that the connection with the module and main contract is granted."
      },
      "previousOwner()": {
        "details": "Returns the address of the previous owner."
      },
      "renounceOwnership()": {
        "details": "Leaves the contract without an owner. It won't be possible to call `onlyOwner` functions anymore. Can only be called by the current owner."
      },
      "transferOwnership(address)": {
        "details": "Transfers ownership of the contract to a new account (`newOwner`). Can only be called by the current owner."
      }
    },
    "version": 1
  },
  "userdoc": {
    "kind": "user",
    "methods": {},
    "version": 1
  }
}