{
  "contractName": "OwnershipModule",
  "abi": [
    {
      "inputs": [
        {
          "internalType": "address",
          "name": "cOwner",
          "type": "address"
        },
        {
          "internalType": "address",
          "name": "baseContract",
          "type": "address"
        },
        {
          "internalType": "address",
          "name": "avaraNftContract",
          "type": "address"
        },
        {
          "internalType": "address",
          "name": "avaraContract",
          "type": "address"
        }
      ],
      "stateMutability": "nonpayable",
      "type": "constructor"
    },
    {
      "anonymous": false,
      "inputs": [
        {
          "indexed": true,
          "internalType": "address",
          "name": "previousOwner",
          "type": "address"
        },
        {
          "indexed": true,
          "internalType": "address",
          "name": "newOwner",
          "type": "address"
        }
      ],
      "name": "OwnershipTransferred",
      "type": "event"
    },
    {
      "anonymous": false,
      "inputs": [
        {
          "indexed": false,
          "internalType": "uint256",
          "name": "nftId",
          "type": "uint256"
        },
        {
          "indexed": false,
          "internalType": "uint256",
          "name": "price",
          "type": "uint256"
        },
        {
          "indexed": false,
          "internalType": "address",
          "name": "seller",
          "type": "address"
        }
      ],
      "name": "SellingNft",
      "type": "event"
    },
    {
      "inputs": [],
      "name": "Avara",
      "outputs": [
        {
          "internalType": "contract IERC20",
          "name": "",
          "type": "address"
        }
      ],
      "stateMutability": "view",
      "type": "function"
    },
    {
      "inputs": [],
      "name": "AvaraNFT",
      "outputs": [
        {
          "internalType": "contract IERC721",
          "name": "",
          "type": "address"
        }
      ],
      "stateMutability": "view",
      "type": "function"
    },
    {
      "inputs": [],
      "name": "moduleName",
      "outputs": [
        {
          "internalType": "string",
          "name": "",
          "type": "string"
        }
      ],
      "stateMutability": "view",
      "type": "function"
    },
    {
      "inputs": [],
      "name": "moduleVersion",
      "outputs": [
        {
          "internalType": "string",
          "name": "",
          "type": "string"
        }
      ],
      "stateMutability": "view",
      "type": "function"
    },
    {
      "inputs": [],
      "name": "owner",
      "outputs": [
        {
          "internalType": "address",
          "name": "",
          "type": "address"
        }
      ],
      "stateMutability": "view",
      "type": "function"
    },
    {
      "inputs": [],
      "name": "previousOwner",
      "outputs": [
        {
          "internalType": "address",
          "name": "",
          "type": "address"
        }
      ],
      "stateMutability": "view",
      "type": "function"
    },
    {
      "inputs": [],
      "name": "renounceOwnership",
      "outputs": [],
      "stateMutability": "nonpayable",
      "type": "function"
    },
    {
      "inputs": [
        {
          "internalType": "address",
          "name": "newOwner",
          "type": "address"
        }
      ],
      "name": "transferOwnership",
      "outputs": [],
      "stateMutability": "nonpayable",
      "type": "function"
    },
    {
      "inputs": [
        {
          "internalType": "uint256",
          "name": "nftId",
          "type": "uint256"
        },
        {
          "internalType": "uint256",
          "name": "price_",
          "type": "uint256"
        }
      ],
      "name": "selling",
      "outputs": [],
      "stateMutability": "nonpayable",
      "type": "function"
    },
    {
      "inputs": [
        {
          "internalType": "uint256",
          "name": "nftId",
          "type": "uint256"
        }
      ],
      "name": "buying",
      "outputs": [],
      "stateMutability": "nonpayable",
      "type": "function"
    },
    {
      "inputs": [],
      "name": "ping",
      "outputs": [
        {
          "internalType": "string",
          "name": "",
          "type": "string"
        }
      ],
      "stateMutability": "view",
      "type": "function"
    }
  ],
  "bytecode": "0x60806040523480156200001157600080fd5b5060405162002062380380620020628339818101604052810190620000379190620004e2565b83836040518060400160405280600981526020017f4f776e65727368697000000000000000000000000000000000000000000000008152506040518060400160405280600581526020017f302e302e3100000000000000000000000000000000000000000000000000000081525083620000b781620002cf60201b60201c565b5082600260006101000a81548173ffffffffffffffffffffffffffffffffffffffff021916908373ffffffffffffffffffffffffffffffffffffffff1602179055508373ffffffffffffffffffffffffffffffffffffffff16600260009054906101000a900473ffffffffffffffffffffffffffffffffffffffff1673ffffffffffffffffffffffffffffffffffffffff16638da5cb5b6040518163ffffffff1660e01b815260040160206040518083038186803b1580156200017957600080fd5b505afa1580156200018e573d6000803e3d6000fd5b505050506040513d601f19601f82011682018060405250810190620001b49190620004b6565b73ffffffffffffffffffffffffffffffffffffffff16146200020d576040517f08c379a0000000000000000000000000000000000000000000000000000000008152600401620002049062000575565b60405180910390fd5b816003908051906020019062000225929190620003ef565b5080600490805190602001906200023e929190620003ef565b505050505081600560006101000a81548173ffffffffffffffffffffffffffffffffffffffff021916908373ffffffffffffffffffffffffffffffffffffffff16021790555080600660006101000a81548173ffffffffffffffffffffffffffffffffffffffff021916908373ffffffffffffffffffffffffffffffffffffffff16021790555050505050620006aa565b60008054906101000a900473ffffffffffffffffffffffffffffffffffffffff16600160006101000a81548173ffffffffffffffffffffffffffffffffffffffff021916908373ffffffffffffffffffffffffffffffffffffffff160217905550806000806101000a81548173ffffffffffffffffffffffffffffffffffffffff021916908373ffffffffffffffffffffffffffffffffffffffff1602179055508073ffffffffffffffffffffffffffffffffffffffff16600160009054906101000a900473ffffffffffffffffffffffffffffffffffffffff1673ffffffffffffffffffffffffffffffffffffffff167f8be0079c531659141344cd1fd0a4f28419497f9722a3daafe3b4186f6b6457e060405160405180910390a350565b828054620003fd90620005dc565b90600052602060002090601f0160209004810192826200042157600085556200046d565b82601f106200043c57805160ff19168380011785556200046d565b828001600101855582156200046d579182015b828111156200046c5782518255916020019190600101906200044f565b5b5090506200047c919062000480565b5090565b5b808211156200049b57600081600090555060010162000481565b5090565b600081519050620004b08162000690565b92915050565b600060208284031215620004c957600080fd5b6000620004d9848285016200049f565b91505092915050565b60008060008060808587031215620004f957600080fd5b600062000509878288016200049f565b94505060206200051c878288016200049f565b93505060406200052f878288016200049f565b925050606062000542878288016200049f565b91505092959194509250565b60006200055d603b8362000597565b91506200056a8262000641565b604082019050919050565b6000602082019050818103600083015262000590816200054e565b9050919050565b600082825260208201905092915050565b6000620005b582620005bc565b9050919050565b600073ffffffffffffffffffffffffffffffffffffffff82169050919050565b60006002820490506001821680620005f557607f821691505b602082108114156200060c576200060b62000612565b5b50919050565b7f4e487b7100000000000000000000000000000000000000000000000000000000600052602260045260246000fd5b7f546865206d6f64756c65206465706c6f796572206d757374206265207468652060008201527f6f776e6572206f6620746865206261736520636f6e7472616374210000000000602082015250565b6200069b81620005a8565b8114620006a757600080fd5b50565b6119a880620006ba6000396000f3fe608060405234801561001057600080fd5b50600436106100a95760003560e01c8063726bddfd11610071578063726bddfd146101305780638da5cb5b1461014c57806393f0899a1461016a578063baa3b4d714610188578063c99bf814146101a6578063f2fde38b146101c2576100a9565b80631032dd60146100ae57806313b2a691146100cc5780635c36b186146100ea578063674f220f14610108578063715018a614610126575b600080fd5b6100b66101de565b6040516100c391906112de565b60405180910390f35b6100d4610204565b6040516100e191906112f9565b60405180910390f35b6100f261022a565b6040516100ff9190611314565b60405180910390f35b610110610337565b60405161011d9190611263565b60405180910390f35b61012e610361565b005b61014a6004803603810190610145919061109a565b6103e9565b005b6101546106d1565b6040516101619190611263565b60405180910390f35b6101726106fa565b60405161017f9190611314565b60405180910390f35b61019061078c565b60405161019d9190611314565b60405180910390f35b6101c060048036038101906101bb9190611048565b61081e565b005b6101dc60048036038101906101d79190610f8c565b610c71565b005b600660009054906101000a900473ffffffffffffffffffffffffffffffffffffffff1681565b600560009054906101000a900473ffffffffffffffffffffffffffffffffffffffff1681565b6060610234610d69565b73ffffffffffffffffffffffffffffffffffffffff166102526106d1565b73ffffffffffffffffffffffffffffffffffffffff16146102a8576040517f08c379a000000000000000000000000000000000000000000000000000000000815260040161029f906113b6565b60405180910390fd5b6102b0610d71565b73ffffffffffffffffffffffffffffffffffffffff16635c36b1866040518163ffffffff1660e01b815260040160006040518083038186803b1580156102f557600080fd5b505afa158015610309573d6000803e3d6000fd5b505050506040513d6000823e3d601f19601f820116820180604052508101906103329190611007565b905090565b6000600160009054906101000a900473ffffffffffffffffffffffffffffffffffffffff16905090565b610369610d69565b73ffffffffffffffffffffffffffffffffffffffff166103876106d1565b73ffffffffffffffffffffffffffffffffffffffff16146103dd576040517f08c379a00000000000000000000000000000000000000000000000000000000081526004016103d4906113b6565b60405180910390fd5b6103e76000610d9b565b565b600560009054906101000a900473ffffffffffffffffffffffffffffffffffffffff1673ffffffffffffffffffffffffffffffffffffffff16634f558e79836040518263ffffffff1660e01b81526004016104449190611436565b60206040518083038186803b15801561045c57600080fd5b505afa158015610470573d6000803e3d6000fd5b505050506040513d601f19601f820116820180604052508101906104949190610fde565b6104d3576040517f08c379a00000000000000000000000000000000000000000000000000000000081526004016104ca906113d6565b60405180910390fd5b6104db610d69565b73ffffffffffffffffffffffffffffffffffffffff16600560009054906101000a900473ffffffffffffffffffffffffffffffffffffffff1673ffffffffffffffffffffffffffffffffffffffff16636352211e846040518263ffffffff1660e01b815260040161054c9190611436565b60206040518083038186803b15801561056457600080fd5b505afa158015610578573d6000803e3d6000fd5b505050506040513d601f19601f8201168201806040525081019061059c9190610fb5565b73ffffffffffffffffffffffffffffffffffffffff16146105f2576040517f08c379a00000000000000000000000000000000000000000000000000000000081526004016105e990611356565b60405180910390fd5b604051806040016040528082815260200161060b610d69565b73ffffffffffffffffffffffffffffffffffffffff16815250600760008481526020019081526020016000206000820151816000015560208201518160010160006101000a81548173ffffffffffffffffffffffffffffffffffffffff021916908373ffffffffffffffffffffffffffffffffffffffff1602179055509050507f9e57e2406ea0401d6a82255e86afa05bf3c967ea9eff5abc93b28c49cde5385282826106b6610d69565b6040516106c593929190611451565b60405180910390a15050565b60008060009054906101000a900473ffffffffffffffffffffffffffffffffffffffff16905090565b606060038054610709906115bd565b80601f0160208091040260200160405190810160405280929190818152602001828054610735906115bd565b80156107825780601f1061075757610100808354040283529160200191610782565b820191906000526020600020905b81548152906001019060200180831161076557829003601f168201915b5050505050905090565b60606004805461079b906115bd565b80601f01602080910402602001604051908101604052809291908181526020018280546107c7906115bd565b80156108145780601f106107e957610100808354040283529160200191610814565b820191906000526020600020905b8154815290600101906020018083116107f757829003601f168201915b5050505050905090565b600560009054906101000a900473ffffffffffffffffffffffffffffffffffffffff1673ffffffffffffffffffffffffffffffffffffffff16634f558e79826040518263ffffffff1660e01b81526004016108799190611436565b60206040518083038186803b15801561089157600080fd5b505afa1580156108a5573d6000803e3d6000fd5b505050506040513d601f19601f820116820180604052508101906108c99190610fde565b610908576040517f08c379a00000000000000000000000000000000000000000000000000000000081526004016108ff906113f6565b60405180910390fd5b600060076000838152602001908152602001600020600001541415610962576040517f08c379a000000000000000000000000000000000000000000000000000000000815260040161095990611396565b60405180910390fd5b61096a610d69565b73ffffffffffffffffffffffffffffffffffffffff16600560009054906101000a900473ffffffffffffffffffffffffffffffffffffffff1673ffffffffffffffffffffffffffffffffffffffff16636352211e836040518263ffffffff1660e01b81526004016109db9190611436565b60206040518083038186803b1580156109f357600080fd5b505afa158015610a07573d6000803e3d6000fd5b505050506040513d601f19601f82011682018060405250810190610a2b9190610fb5565b73ffffffffffffffffffffffffffffffffffffffff161415610a82576040517f08c379a0000000000000000000000000000000000000000000000000000000008152600401610a7990611336565b60405180910390fd5b60006007600083815260200190815260200160002090508060000154600660009054906101000a900473ffffffffffffffffffffffffffffffffffffffff1673ffffffffffffffffffffffffffffffffffffffff1663dd62ed3e610ae4610d69565b306040518363ffffffff1660e01b8152600401610b0292919061127e565b60206040518083038186803b158015610b1a57600080fd5b505afa158015610b2e573d6000803e3d6000fd5b505050506040513d601f19601f82011682018060405250810190610b529190611071565b1015610b93576040517f08c379a0000000000000000000000000000000000000000000000000000000008152600401610b8a90611416565b60405180910390fd5b600660009054906101000a900473ffffffffffffffffffffffffffffffffffffffff1673ffffffffffffffffffffffffffffffffffffffff166323b872dd338360010160009054906101000a900473ffffffffffffffffffffffffffffffffffffffff1684600001546040518463ffffffff1660e01b8152600401610c1a939291906112a7565b602060405180830381600087803b158015610c3457600080fd5b505af1158015610c48573d6000803e3d6000fd5b505050506040513d601f19601f82011682018060405250810190610c6c9190610fde565b505050565b610c79610d69565b73ffffffffffffffffffffffffffffffffffffffff16610c976106d1565b73ffffffffffffffffffffffffffffffffffffffff1614610ced576040517f08c379a0000000000000000000000000000000000000000000000000000000008152600401610ce4906113b6565b60405180910390fd5b600073ffffffffffffffffffffffffffffffffffffffff168173ffffffffffffffffffffffffffffffffffffffff161415610d5d576040517f08c379a0000000000000000000000000000000000000000000000000000000008152600401610d5490611376565b60405180910390fd5b610d6681610d9b565b50565b600033905090565b6000600260009054906101000a900473ffffffffffffffffffffffffffffffffffffffff16905090565b60008054906101000a900473ffffffffffffffffffffffffffffffffffffffff16600160006101000a81548173ffffffffffffffffffffffffffffffffffffffff021916908373ffffffffffffffffffffffffffffffffffffffff160217905550806000806101000a81548173ffffffffffffffffffffffffffffffffffffffff021916908373ffffffffffffffffffffffffffffffffffffffff1602179055508073ffffffffffffffffffffffffffffffffffffffff16600160009054906101000a900473ffffffffffffffffffffffffffffffffffffffff1673ffffffffffffffffffffffffffffffffffffffff167f8be0079c531659141344cd1fd0a4f28419497f9722a3daafe3b4186f6b6457e060405160405180910390a350565b6000610ece610ec9846114ad565b611488565b905082815260208101848484011115610ee657600080fd5b610ef184828561158a565b509392505050565b600081359050610f088161192d565b92915050565b600081519050610f1d8161192d565b92915050565b600081519050610f3281611944565b92915050565b600082601f830112610f4957600080fd5b8151610f59848260208601610ebb565b91505092915050565b600081359050610f718161195b565b92915050565b600081519050610f868161195b565b92915050565b600060208284031215610f9e57600080fd5b6000610fac84828501610ef9565b91505092915050565b600060208284031215610fc757600080fd5b6000610fd584828501610f0e565b91505092915050565b600060208284031215610ff057600080fd5b6000610ffe84828501610f23565b91505092915050565b60006020828403121561101957600080fd5b600082015167ffffffffffffffff81111561103357600080fd5b61103f84828501610f38565b91505092915050565b60006020828403121561105a57600080fd5b600061106884828501610f62565b91505092915050565b60006020828403121561108357600080fd5b600061109184828501610f77565b91505092915050565b600080604083850312156110ad57600080fd5b60006110bb85828601610f62565b92505060206110cc85828601610f62565b9150509250929050565b6110df816114fa565b82525050565b6110ee81611542565b82525050565b6110fd81611566565b82525050565b600061110e826114de565b61111881856114e9565b935061112881856020860161158a565b6111318161167e565b840191505092915050565b6000611149603d836114e9565b91506111548261168f565b604082019050919050565b600061116c603b836114e9565b9150611177826116de565b604082019050919050565b600061118f6030836114e9565b915061119a8261172d565b604082019050919050565b60006111b26032836114e9565b91506111bd8261177c565b604082019050919050565b60006111d56025836114e9565b91506111e0826117cb565b604082019050919050565b60006111f8602c836114e9565b91506112038261181a565b604082019050919050565b600061121b602d836114e9565b915061122682611869565b604082019050919050565b600061123e604b836114e9565b9150611249826118b8565b606082019050919050565b61125d81611538565b82525050565b600060208201905061127860008301846110d6565b92915050565b600060408201905061129360008301856110d6565b6112a060208301846110d6565b9392505050565b60006060820190506112bc60008301866110d6565b6112c960208301856110d6565b6112d66040830184611254565b949350505050565b60006020820190506112f360008301846110e5565b92915050565b600060208201905061130e60008301846110f4565b92915050565b6000602082019050818103600083015261132e8184611103565b905092915050565b6000602082019050818103600083015261134f8161113c565b9050919050565b6000602082019050818103600083015261136f8161115f565b9050919050565b6000602082019050818103600083015261138f81611182565b9050919050565b600060208201905081810360008301526113af816111a5565b9050919050565b600060208201905081810360008301526113cf816111c8565b9050919050565b600060208201905081810360008301526113ef816111eb565b9050919050565b6000602082019050818103600083015261140f8161120e565b9050919050565b6000602082019050818103600083015261142f81611231565b9050919050565b600060208201905061144b6000830184611254565b92915050565b60006060820190506114666000830186611254565b6114736020830185611254565b61148060408301846110d6565b949350505050565b60006114926114a3565b905061149e82826115ef565b919050565b6000604051905090565b600067ffffffffffffffff8211156114c8576114c761164f565b5b6114d18261167e565b9050602081019050919050565b600081519050919050565b600082825260208201905092915050565b600061150582611518565b9050919050565b60008115159050919050565b600073ffffffffffffffffffffffffffffffffffffffff82169050919050565b6000819050919050565b600061154d82611554565b9050919050565b600061155f82611518565b9050919050565b600061157182611578565b9050919050565b600061158382611518565b9050919050565b60005b838110156115a857808201518184015260208101905061158d565b838111156115b7576000848401525b50505050565b600060028204905060018216806115d557607f821691505b602082108114156115e9576115e8611620565b5b50919050565b6115f88261167e565b810181811067ffffffffffffffff821117156116175761161661164f565b5b80604052505050565b7f4e487b7100000000000000000000000000000000000000000000000000000000600052602260045260246000fd5b7f4e487b7100000000000000000000000000000000000000000000000000000000600052604160045260246000fd5b6000601f19601f8301169050919050565b7f4f776e6572736869704d6f64756c652e627579696e673a204f776e6572206f6660008201527f206e66742063616e206e6f742062757920686973206f776e206e66742e000000602082015250565b7f4d61726b6574706c6163652e73656c6c696e674e46543a2053656e646572206860008201527f617320746f20626520746865206f776e6572206f6620746f6b656e0000000000602082015250565b7f4f776e61626c653a20546865206e6577206f776e6572206973206e6f772c207460008201527f6865207a65726f20616464726573732100000000000000000000000000000000602082015250565b7f4f776e6572736869704d6f64756c652e627579696e673a20546f6b656e20697360008201527f206e6f7420696e2073616c65206c6973742e0000000000000000000000000000602082015250565b7f4f776e61626c653a205468652063616c6c6572206973206e6f7420746865206f60008201527f776e657221000000000000000000000000000000000000000000000000000000602082015250565b7f4d61726b6574706c6163652e73656c6c696e674e46543a204e6674496420646f60008201527f6573206e6f742065786973740000000000000000000000000000000000000000602082015250565b7f4f776e6572736869704d6f64756c652e627579696e673a204e6674496420646f60008201527f6573206e6f742065786973742e00000000000000000000000000000000000000602082015250565b7f4d61726b6574706c6163652e636f6e6669726d4f666665723a2045524332302060008201527f746f6b656e20616c6c6f77616e6365206973206c657373207468616e2073656c60208201527f6c696e672070726963652e000000000000000000000000000000000000000000604082015250565b611936816114fa565b811461194157600080fd5b50565b61194d8161150c565b811461195857600080fd5b50565b61196481611538565b811461196f57600080fd5b5056fea2646970667358221220dbdd47229cb93df0798942f3a185077a3f16d35a06f2572ccb39f3564321af5e64736f6c63430008040033",
  "immutableReferences": {},
  "source": "/**\n    ***********************************************************\n    * Copyright (c) Avara Dev. 2021. (Telegram: @avara_cc)  *\n    ***********************************************************\n\n             \n          \n       \n         \n        .       .       - Binance Smart Chain\n\n    Avara - Always Vivid, Always Rising Above\n    https://avara.cc/\n    https://github.com/avara-cc\n    https://github.com/avara-cc/Avara/wiki\n*/\n\n// SPDX-License-Identifier: AGPL-3.0-or-later\n\npragma solidity 0.8.4;\n\nimport \"./abstract/AvaraModule.sol\";\nimport \"./library/SafeMath.sol\";\nimport \"@openzeppelin/contracts/token/ERC721/IERC721.sol\";\nimport \"@openzeppelin/contracts/token/ERC20/IERC20.sol\";\n\ncontract OwnershipModule is AvaraModule {\n    IERC721 public AvaraNFT;\n    IERC20 public Avara;\n    struct SellNft {\n        uint256 price;\n        address seller;\n    }\n    mapping(uint256 => SellNft) sellNftList;\n    event SellingNft(uint256 nftId, uint256 price, address seller);\n\n    constructor(address cOwner, address baseContract, address avaraNftContract, address avaraContract) AvaraModule(cOwner, baseContract, \"Ownership\", \"0.0.1\") {\n        AvaraNFT = IERC721(avaraNftContract);\n        Avara = IERC20(avaraContract);\n    }\n\n    function selling(uint256 nftId, uint256 price_) public {\n        require(AvaraNFT.exists(nftId), \"Marketplace.sellingNFT: NftId does not exist\");\n        require(AvaraNFT.ownerOf(nftId) == _msgSender(), \"Marketplace.sellingNFT: Sender has to be the owner of token\");\n        sellNftList[nftId] = SellNft({\n            price: price_,\n            seller: _msgSender()\n        });\n\n        emit SellingNft(nftId, price_, _msgSender());\n    }\n    function buying(uint256 nftId) public {\n        require(AvaraNFT.exists(nftId), \"OwnershipModule.buying: NftId does not exist.\");\n        require(sellNftList[nftId].price != 0, \"OwnershipModule.buying: Token is not in sale list.\");\n        require(AvaraNFT.ownerOf(nftId) != _msgSender(), \"OwnershipModule.buying: Owner of nft can not buy his own nft.\");\n        SellNft storage sell = sellNftList[nftId];\n        require(Avara.allowance(_msgSender(), address(this)) >=  sell.price, \"Marketplace.confirmOffer: ERC20 token allowance is less than selling price.\");\n        Avara.transferFrom(msg.sender, sell.seller, sell.price);\n    }\n    /**\n    * @dev Occasionally called (only) by the server to make sure that the connection with the module and main contract is granted.\n    */\n    function ping() external view onlyOwner returns (string memory) {\n        return getBaseContract().ping();\n    }\n}",
  "sourcePath": "/home/oncemore/Blockchain/avara-test/contract/contracts/OwnershipModule.sol",
  "compiler": {
    "name": "solc",
    "version": "0.8.4+commit.c7e474f2.Emscripten.clang"
  },
  "schemaVersion": "3.3.4",
  "updatedAt": "2022-01-27T10:23:03.143Z",
  "devdoc": {
    "kind": "dev",
    "methods": {
      "moduleName()": {
        "details": "Returns the module name."
      },
      "moduleVersion()": {
        "details": "Returns the module version."
      },
      "owner()": {
        "details": "Returns the address of the current owner."
      },
      "ping()": {
        "details": "Occasionally called (only) by the server to make sure that the connection with the module and main contract is granted."
      },
      "previousOwner()": {
        "details": "Returns the address of the previous owner."
      },
      "renounceOwnership()": {
        "details": "Leaves the contract without an owner. It won't be possible to call `onlyOwner` functions anymore. Can only be called by the current owner."
      },
      "transferOwnership(address)": {
        "details": "Transfers ownership of the contract to a new account (`newOwner`). Can only be called by the current owner."
      }
    },
    "version": 1
  },
  "userdoc": {
    "kind": "user",
    "methods": {},
    "version": 1
  }
}